:020000040800F2
:1000000040070020350200081716000845150008B3
:10001000151600082B0400084D1900080000000008
:10002000000000000000000000000000A11800080F
:10003000DD0400080000000019160008A3180008DD
:100040004F0200084F0200084F0200084F0200084C
:100050004F0200084F0200084F0200084F0200083C
:100060004F0200084F0200084F0200084F0200082C
:100070004F0200084F0200084F0200084F0200081C
:100080004F0200084F0200084F0200080000000065
:100090000000000000000000000000004F02000807
:1000A0004F0200084F0200084F0200084F020008EC
:1000B0004F0200084F0200084F0200084F020008DC
:1000C0004F0200084F0200084F0200081D160008EA
:1000D0004F0200084F0200084F0200080000000015
:1000E0004F0200084F0200084F0200080000000005
:1000F0000000000000000000000000004F020008A7
:10010000000000004F0200084F0200084F020008E4
:1001100000000000000000000000000000000000DF
:100120002D0400084F0200084F0200084F0200088B
:100130004F02000800000000000000000000000066
:100140000000000000000000000000004F02000856
:100150004F0200084F0200084F0200084F0200083B
:100160004F0200084F0200080000000000000000DD
:10017000000000000000000000000000000000007F
:10018000000000004F020008000000000000000016
:100190004F02000800F002F800F03CF80AA090E8D6
:1001A000000C82448344AAF10107DA4501D100F032
:1001B00031F8AFF2090EBAE80F0013F0010F18BFC3
:1001C000FB1A43F00103184774180000941800004C
:1001D000103A24BF78C878C1FAD8520724BF30C873
:1001E00030C144BF04680C60704700000023002445
:1001F00000250026103A28BF78C1FBD8520728BF37
:1002000030C148BF0B6070471FB501F006FC1FBD31
:1002100010B510BD00F0CFF81146FFF7F5FF01F063
:10022000A7FB00F0EDF803B4FFF7F2FF03BC00F00A
:10023000F5F800000948804709480047FEE7FEE757
:10024000FEE7FEE7FEE7FEE7FEE7FEE7FEE7FEE786
:1002500004480549054A064B704700003D1900084F
:1002600095010008400100204007002040030020C5
:100270004003002053EA020C00F069802DE9F04BA6
:100280004FF00006002B1FBFB3FA83F503FA05F405
:1002900024FA05F65E4012BF1643B2FA82F502FA5E
:1002A00005F4C5F120051EBF22FA05FC44EA0C0442
:1002B000203556EA044C4FEA144418BF641C4FF032
:1002C00000084FF00009904271EB030C39D300296C
:1002D00019BFB1FA81F701FA07F6B0FA80F700FA10
:1002E00007F6C7F120071EBF20FA07FC46EA0C06F6
:1002F0002037B6FBF4FCA7EB0507103F07F01F0BF8
:10030000CBF120060CFA0BFB2CFA06F644BFB346E1
:100310000026202FA4BF5E464FF0000B5BEA060CC0
:1003200008BF4FF0010B19EB0B09ABFB027C48EB4C
:100330000608C01B06FB02CC0BFB03CC71EB0C01C7
:10034000C1E70B46024641464846BDE8F08B13B56F
:100350004FF000004FF00001AFF30080BDE81C40FB
:1003600070474FF0000200B5134694469646203978
:1003700022BFA0E80C50A0E80C50B1F12001BFF45E
:10038000F7AF090728BFA0E80C5048BF0CC05DF8C4
:1003900004EB890028BF40F8042B08BF704748BF12
:1003A00020F8022B11F0804F18BF00F8012B704786
:1003B000704770477047754600F02CF8AE46050050
:1003C0006946534620F00700854618B020B5FFF770
:1003D0003FFFBDE820404FF000064FF000074FF010
:1003E00000084FF0000B21F00701AC46ACE8C00953
:1003F000ACE8C009ACE8C009ACE8C0098D4670475C
:1004000010B50446AFF300802046BDE81040FFF76A
:100410000ABF000000487047E00000200149182092
:10042000ABBEFEE7260002007047FEE7014800F081
:100430006BB800008000002001681823CAB2103A8F
:10044000B2FBF3F2054B6FF30901032A9B5CC36512
:1004500000D9091D8165084670470000241A00086C
:1004600010B5014600208B698A6A4FF0C07453B101
:10047000B3F5005F15D072B1012A0CD0022A0AD060
:10048000032A09D104E01AB1012A06D0022A03D1B5
:10049000C96AC90100D5012010BDC96AA142FAD0BC
:1004A00010BD002AF7D0012AF2D0022AF3D0032A85
:1004B000F3D010BD30B50468256825F4802525608B
:1004C000046863608368402B036803D09960006808
:1004D000C26030BD9A600068C16030BD704772B6BE
:1004E000FEE790F83510022903D0802141650120F4
:1004F0007047052180F835100068016821F001017E
:1005000001600020704700002DE9F84304464FF0D9
:100510000009CDF8009063484FF41651A56D0068AE
:10052000B0FBF1F72E6894F85C10082000FA01F196
:1005300031420FD021680A6852070BD50A6822F0B1
:1005400004020A6094F85C108840A860606D40F076
:100550000100606594F85C104FF0010808FA01F0A2
:10056000304208D021684969090604D5A860606D49
:1005700040F00200606594F85C100420884030422E
:1005800008D021680968890704D5A860606D40F02B
:100590000400606594F85C1010208840304218D048
:1005A00021680968090714D5A86020680168490313
:1005B00004D50068000308D5A16C07E00168C905EF
:1005C00003D4016821F008010160216C09B12046C3
:1005D000884794F85C1020208840304231D0216850
:1005E0000968C9062DD5A86094F83500052820684B
:1005F000016806D0490347D5006800031DD4616C2B
:100600001CE021F0160101602068416921F08001A1
:100610004161206C08B9A06C20B12068016821F00C
:100620000801016094F85C103F208840A86084F8BD
:10063000358084F83490216D1FE0E16B09B12046CC
:100640008847606D00282BD0606DC00714D005204E
:1006500084F835002068016821F0010101600098EC
:10066000401C0090B84203D820680068C007F6D14B
:1006700084F8358084F83490E16C002910D001B002
:100680002046BDE8F04308470168C905D5D4016894
:1006900021F01001016084F8358084F83490CCE7B3
:1006A000BDE8F883240000202DE9F041044600F065
:1006B000A5F906465CB1022084F83500002584F8CF
:1006C00034502068016821F0010101600DE0012033
:1006D000BDE8F08100F092F9801B052805D92020A3
:1006E0006065032084F83500F2E720680068C007E1
:1006F000F0D12268116820480140D4E90103184371
:10070000D4E903363343184363691843A369184394
:10071000E3691843236A18430843616A042903D133
:10072000D4E90B1319430843106020684069666AD6
:1007300020F0070130460E43012704280CD1A06A9F
:100740000643E06A40B12046FFF78AFE20B1402010
:10075000606584F83570BAE7206846612046FFF787
:100760006BFE94F85C203F2191408160656584F8C0
:1007700035700020ACE700003F8010F02DE9F0411B
:100780000446866D90F83400002501280DD0012024
:1007900084F8340094F835700020012F07D084F8D5
:1007A000340002252846BDE8F0810220FBE702273D
:1007B00084F8357060652046FFF77CFE94F85C1085
:1007C0003F208840B0602068016841F01601016058
:1007D000206C20B12068016841F0080101602068A8
:1007E000016841F001010160DCE7000070B50446DA
:1007F00000F004F90546601C02D004480078044467
:1008000000F0FCF8401BA042FAD370BD1800002095
:100810002DE9F84FDFF8B8A10022012403254FF09D
:100820000F090AF1040BAAF1040E00BF0B6804FAC9
:1008300002F63340B34273D10F7907F00307012F5B
:1008400001D0022F16D187684FEA420805FA08FC4A
:1008500027EA0C07D1F80CC00CFA08FC4CEA070C8C
:10086000C0F808C04768B7430E79C6F30016964033
:100870003E4346600E79F643B6070DD0C768560072
:1008800005FA06FC27EA0C07D1F808C00CFA06FCAA
:100890004CEA070CC0F80CC00E7906F00306022ED5
:1008A00010D1D60800EB8608D8F8206057074FEA29
:1008B000D76C09FA0CF7BE430F6907FA0CF73743F8
:1008C000C8F8207006684FEA420C05FA0CF7BE43E0
:1008D0000F7907F0030707FA0CF7374307604E68F4
:1008E00016F4403F6DD03B4E376847F48047376081
:1008F000366822F0030706F480460096364E07EB72
:10090000060CDCF8086897073F0F09FA07F826EA93
:100910000806DFF8C880404503D14FF000081EE00C
:100920004FE0DFF8BC80404502D14FF0010816E0EF
:10093000DFF8B080404502D14FF002080FE0DFF849
:10094000A880404502D14FF0030808E0DFF89C8002
:10095000404502D14FF0040801E04FF0070808FAC3
:1009600007F848EA0608CCF80888DAF80060574625
:10097000D1F804C09E435FEACC2C00D51E433E60F4
:10098000DBF800605F46D1F804C09E435FEA8C2C20
:1009900000D51E433E60DEF800607746D1F804C003
:1009A0009E435FEA8C3C00D51E433E60084F083FE3
:1009B0003E68D1F804C09E435FEACC3C00D51E439C
:1009C0003E60521C102AFFF431AFBDE8F88F0000E2
:1009D000083C014044380240003001400000024021
:1009E0000004024000080240000C024000100240D7
:1009F0000AB1816170470904FBE700000148806883
:100A000070470000180000200248816802781144F5
:100A100081607047180000200B4810B5016841F450
:100A200000710160016841F480610160016841F476
:100A300080710160032000F06FF80F2000F006F8CD
:100A400000F024F8002010BD003C024070B50D4DB0
:100A500004464FF47A712878B1FBF0F00A4909682E
:100A6000B1FBF0F000F05AFD48B9102C07D200227B
:100A70002146501E00F030F800206C6070BD01204F
:100A800070BD000018000020240000200A4808B5AE
:100A9000016841F480410160006800F480400090EA
:100AA0000548001F016841F080510160006800F0B6
:100AB0008050009008BD000044380240002809DB47
:100AC00000F01F02012191404009800000F1E02068
:100AD000C0F8001170470000F0B40E4B1B680C46C4
:100AE000C3F30223C3F10705042D00D90425191D02
:100AF000072901D2002300E0DB1E012606FA05F1DA
:100B0000491E214099409E40761E16403143F0BC5C
:100B100000F01DBF0CED00E0064900F00702086878
:100B20004FF6FF03184040EA0220034A10430860D2
:100B3000704700000CED00E00000FA052DE9F047D9
:100B40000E46050065D0DFF81481D8F80000F7B232
:100B500000F00700B04207D288F80070D8F8000013
:100B600000F00700B04254D128683D4C810712D5EF
:100B7000400703D5206840F4E05020602878000743
:100B800003D5206840F4604020602068A96820F008
:100B9000F000084320602878C0072DD030496868ED
:100BA0000839012812D0022813D0032811D009686F
:100BB000890700292DDA216821F003010143216012
:100BC000FFF71CFF814641F2883A0EE0096889036D
:100BD000EFE709688901ECE7FFF710FFA0EB0901D7
:100BE000514502D90320BDE8F0872068696800F00C
:100BF0000C00B0EB810FEFD1D8F80010404601F0A7
:100C00000701B14207D90770006800F00700B04241
:100C100001D00120E7E72878400705D52068E9687A
:100C200020F4E050084320602878000706D52068AB
:100C3000296920F4604040EAC100206000F018F803
:100C40002168084AC1F30311515CC8400649086095
:100C500006480068FFF7FAFE0020C4E7003C0240A7
:100C6000083802402C1A0008240000201C00002034
:100C7000154810B5006810F00C02144813D0144940
:100C8000042A0FD0082A0ED10F4C241F2268236893
:100C900002F03F025B0207D52068C0F38810A0FB7A
:100CA000010106E0084610BD2168C1F38811A1FBCF
:100CB00000010023FFF7DEFA2168C1F30141491C5E
:100CC0004900B0FBF1F010BD083802400024F400E8
:100CD00040787D012DE9F84F04006ED02078DFF8D0
:100CE0004C93C007A9F104054AD009F1040001683A
:100CF000C1F38101012908D00068C0F381000228F6
:100D00000AD1D9F80000400206D52868800337D5FB
:100D100060680028E1D033E06068B0F5803F10D013
:100D2000B0F5A02F286810D020F480302860286803
:100D300020F4802028606068A8B1FFF75FFE0646B7
:100D40000DE0286840F48030F4E740F4802028600B
:100D5000F7E700BFFFF752FE801B642873D82868AE
:100D60008003F7D50CE0FFF749FE064605E000BF1B
:100D7000FFF744FE801B6428F0D828688003F7D46E
:100D80002078DFF8AC8280074FF0000A3ED5A748F4
:100D9000001D016811F00C0F08D00068C0F381003D
:100DA00002280BD1D9F80000400207D42868800738
:100DB00016D5E068012800D112E033E1E068B8B14F
:100DC0000120C8F80000FFF719FE064605E000BF45
:100DD000FFF714FE801B0228C0D828688007F7D5CB
:100DE0002868216920F0F80040EAC10028600DE081
:100DF000C8F800A0FFF702FE064604E0FFF7FEFD7C
:100E0000801B02281FD828688007F7D420780007A5
:100E100022D5864F87486169703771B10121016021
:100E2000FFF7ECFD064604E0FFF7E8FD801B022813
:100E300009D838688007F7D50EE0C0F800A0FFF7A2
:100E4000DDFD064605E082E0FFF7D8FD801B0228A5
:100E50007DD838688007F7D42078400768D5DFF858
:100E6000CCB100270BF13C0BDBF80000C0000BD429
:100E7000DBF8001041F08051CBF80010DBF80000E7
:100E8000012700F0805000906B4E3068C00510D4F0
:100E9000306840F480703060FFF7B0FD009005E0EE
:100EA000FFF7ACFD0099401A022850D83068C00501
:100EB000F6D55E4EA0686C3601280FD00528306844
:100EC00010D020F001003060306820F00400306065
:100ED000A068B8B1FFF792FD00900FE0306840F0D5
:100EE0000100F4E740F004003060F7E7FFF786FD0B
:100EF0000099411A41F28830814266D830688007F3
:100F0000F4D50EE0FFF77AFD009007E0FFF776FDDD
:100F10000099411A41F28830814256D830688007E2
:100F2000F4D42FB1DBF8001021F08051CBF8001081
:100F3000A069C8B33D49091D0968C1F381010229AF
:100F40004AD00228504607D0C8F8600000E03CE0D4
:100F5000FFF754FD04463BE04746C8F86000FFF742
:100F60004DFD064605E000BFFFF748FD801B022847
:100F70002BD828688001F7D4D4E907010843A16A77
:100F80002E4A490802EB0141626A41EA8211084394
:100F900094F82C1040EA0161C9F80010012038666D
:100FA000FFF72CFD044606E03EE000BFFFF726FDFC
:100FB000001B022809D828688001F7D534E000BF5B
:100FC000FFF71CFD001B022802D90320BDE8F88FA3
:100FD00028688001F4D427E00128F7D0D9F8000070
:100FE000E26900F4800191421CD1226A00F03F01C5
:100FF000914217D147F6C071626A0140B1EB821F7E
:1010000010D1A26A4FF0FF3300F4403103EB5202DB
:10101000B1EB024F06D194F82C1000F07060B0EBE9
:10102000016F01D00120D1E70020CFE70438024052
:1010300000004742800E4742007000400000FFFF62
:101040007047000038B5016804464A688868C043A4
:10105000430606D5C30704D1D3435B0601D4216CF4
:1010600005E0830708D4D3431B0605D4616C01B0A7
:101070002046BDE830400847830603D5430601D526
:10108000C30551D4D3439B064ED443060AD494F8E7
:101090005130032B49D0636D43F004036365CB6883
:1010A0008B680093830609D4636D43F00103636585
:1010B0008B6800930B6823F040030B60C00506D4D7
:1010C000606D40F008006065206880680090606D89
:1010D000002829D02068416821F0E001416001200A
:1010E00084F85100900701D4D00722D020684168CD
:1010F00021F003014160114DE06C40B10565E06CE9
:10110000FFF7EFF918B1606D40F040006065A06C2A
:10111000002809D00565A06CFFF7E3F9002803D08B
:10112000606D40F04000606538BDC8688868009018
:1011300038BD2046FFF784FF38BD0000291600089F
:1011400070B5040009D0606A002540B12561656171
:10115000A56294F8510040B10CE0012070BD6068B8
:10116000B0F5827FF4D0E561F2E784F85050204674
:1011700000F044F8022084F851002068016821F052
:1011800040010160A088218900F4827001F40441CB
:101190000843A18901F400610843217C01F00201A8
:1011A0000843217D01F001010843218B01F4007106
:1011B0000843217F01F03801084394F8201001F022
:1011C00080010843218D01F4005108432168086023
:1011D000A069042101EA104094F8241001F01001E4
:1011E0000843216848602068C16921F40061C16139
:1011F0006565012084F85100002070BD70B586B08F
:10120000064614216846FFF7ACF824493068884246
:1012100042D123480025016841F4805101600068F3
:1012200000F4805005901E481438016841F0010117
:1012300001600068694600F001000590E020009020
:101240000220CDE9010503200390052004901548F4
:10125000FFF7DEFA154C144820604FF0C060C4E977
:1012600001054FF48060C4E9035080106561C4E952
:1012700006504002C4E908052046FFF715FA08B1F8
:10128000FFF72DF9F464002211462320A663FFF72F
:1012900023FC2320FFF712FC06B070BD0030014094
:1012A00044380240000002401064024080000020E8
:1012B0002DE9F041044600268068042318B96568CA
:1012C000B5F5827F0ED094F85050012D13D0012730
:1012D00084F8507094F851C00025BCF1010F0DD076
:1012E000022654E084F851302046BDE8F041134610
:1012F0000A4600F07FB80220BDE8F08171B16AB102
:1013000084F851306565A163A287E287256465642E
:10131000A586E586B0F5004F02D00BE0012636E049
:101320002068016821F0400101602068016821F413
:1013300080410160E16C18480864E16C1748C8639B
:10134000E16C1748C864E06C0565E38F2168A26B07
:101350000C31E06CFFF712FA38B1606D40F010000C
:101360006065012684F8517011E020680168490623
:1013700003D4016841F0400101602068416841F0F8
:10138000200141602068416841F00101416084F81A
:1013900050503046B0E700005B1600086F1600089A
:1013A000391600080F4910B50878B52813D14878C8
:1013B0005B2810D1C81E8A780270C9784170044633
:1013C0000088110640BA01D507490843A06000F023
:1013D0000DFBC4E90401BDE81040042201490348A3
:1013E000FFF766BF030000200000FFFF2800002079
:1013F000704700002DE9F041044690F850000026A7
:1014000001280DD0012784F8507094F85100002570
:10141000D4F804C001280FD0BCF5827F0AD102E0C5
:101420000220BDE8F081D4F808C0BCF1000F01D162
:10143000042801D0022660E049B342B33BB394F8DC
:101440005100042802D0052084F85100656521630D
:10145000A386E386A263A387E3872564656494F883
:101460005100042815D0E16C264808642648E16C38
:10147000C863E16C2548C864E06C0565E38F2168AA
:10148000A26B0C31E06CFFF779F9E0B906E00126B8
:1014900033E0E16C1E4808641E48E8E720684168B4
:1014A00041F001014160A06C0564A06CC563A06CB3
:1014B000C564A06C0565E38E2268216B0C32A06CBC
:1014C000FFF75CF938B1606D40F0100060650126EF
:1014D00084F8517011E020680168490603D401685E
:1014E00041F0400101602068416841F02001416005
:1014F0002068416841F00201416084F85050304654
:101500008FE7000065160008D91600083916000894
:101510005B1600086F1600087047704710B5401E34
:10152000B0F1807F01D3012010BD4FF0E024606155
:101530000F21601700F00BFA0020A0610720206146
:10154000002010BDFEE70000F0B587B0142168460A
:10155000FEF707FF1D480024016841F00401016007
:10156000016801F004010591016841F0800101600A
:10157000016801F080010591016841F001010160FD
:101580000068134E00F001004FF400550590002252
:1015900029463046FFF72CFA0E4F0022022138462A
:1015A000FFF726FA00950125CDE90154694630463A
:1015B0000394FFF72DF902200090CDE9015469460C
:1015C00038460394FFF724F907B0F0BD30380240E5
:1015D00000080240000002400D4810B50B490160B0
:1015E000002141608160C1604FF400720161C0E977
:1015F00005120162416281620A21C162FFF7A0FD0A
:10160000002801D072B6FEE710BD00000030014096
:1016100028000020FEE7FEE7704700000148FFF7C2
:1016200011BD00002800002010B5806B0021C1878B
:10163000C186FFF705FD10BD10B5806B01684A68D3
:1016400022F003024A60416D41F010014165012121
:1016500080F85110FFF7F4FC10BD10B5806BFFF758
:10166000C7FE10BD10B5806BFFF757FF10BD70B5FA
:101670000546846BFFF7C2F9024628680068C0057A
:1016800026D42068416821F020014160A06818B983
:101690006068B0F5827F16D02068416821F00101B2
:1016A00041606421204600F044F808B120206065C4
:1016B0000020E087012084F85100606D40B1204691
:1016C000FFF7BEFC70BD2068416821F00301E7E729
:1016D0002046FFF767FE70BD70B50546846BFFF7C7
:1016E0008DF9024628680068C0051ED4206841684C
:1016F00021F0200141606421204600F049F818B132
:10170000606D40F0200060652068416821F00301B1
:1017100041600020E086E087012084F85100606D80
:1017200018B12046FFF78CFC70BD2046FFF7F4FE91
:1017300070BDF8B5044640684FF48273984221D1D9
:10174000A0684FF48065B0F5004F01D0A8420AD1DF
:101750002068066826F0400606606068984211D14D
:10176000A068A8420ED000920B460022802120469D
:1017700000F03AF8002804D0606D40F02000606569
:101780000320F8BD00920B4600220121EFE7000084
:1017900038B504461248134B0068B0FBF3F04FF421
:1017A0007A73584300906068B0F5827F0DD10B4684
:1017B000009200228021204600F016F870B1606D82
:1017C00040F020006065032038BD009830B1401E15
:1017D000009020688068C0430006F6D5002038BD20
:1017E0002400002000366E012DE9F8431E46914684
:1017F00088460446089DFFF701F9401B351AFFF79C
:10180000FDF8074625480068C0F3CB30684338E050
:10181000701C37D0FFF7F2F8C01BA84203D215B1F5
:10182000009860B32CE02068416821F0E00141603D
:101830006068B0F5827F0BD1A068B0F5004F02D090
:10184000B0F5806F04D12068016821F0400101608B
:10185000A06AB0F5005F09D12068016821F4005149
:1018600001602068016841F400510160012084F8A2
:101870005100002084F850000320BDE8F8830025C3
:10188000401E00902068816838EA010004D00021E1
:101890004945BDD10020F0E70121F9E724000020EF
:1018A0007047FFF7B1B8000030B593B030216846FB
:1018B000FEF757FD14210CA8FEF753FD1D48002527
:1018C000016841F080510160006800F08050119083
:1018D0001948016821F4404141F400410160006869
:1018E000022400F440401190012000900004019077
:1018F0008001CDE9064019200890A820CDE909040F
:1019000004200B906846FFF7E5F908B172B6FEE7D0
:101910000CA90F2081E831004FF48050CDE90F056C
:1019200002210CA8FFF70AF9002801D072B6FEE7E1
:1019300013B030BD403802400070004002480168DA
:1019400041F470010160704788ED00E0FEE709078F
:10195000090E002804DB00F1E02080F80014704735
:1019600000F00F0000F1E02080F8141D7047000027
:1019700008B5FFF751F8FFF797FFFFF7E5FD1748A8
:10198000016841F4800101600068002200F48000D9
:10199000009011463820FFF79FF83820FFF78EF8A7
:1019A000FFF71AFE04220E490E48FFF781FC0E4C89
:1019B0004FF400564FF4FA75012231462046FFF7E6
:1019C00017F82846FEF712FF002231462046FFF79F
:1019D0000FF82846FEF70AFFEEE700003038024015
:1019E00003000020280000200008024010F0004200
:1019F00048BF4042B0FA80F310FA03F10AD0C3F1B5
:101A00001D0303F580634FEA415002EB035202EBE2
:101A1000D12170474FF0000070474FF04070E1EE69
:101A2000100A70470006101600061016000000008D
:101A30000000000001020304060708095C1A000800
:101A40000000002028000000D0010008841A0008CF
:101A50002800002018070000EC010008000000002A
:101A60000000000000000000000000000000000076
:101A70000000000001000000100000000000000055
:041A80000024F4004A
:040000050800019559
:00000001FF
